:100D65003A83126F3B449BA63F0000003C23D70A01
:100D75000141100000402666663C23D70A4000006A
:010D8500006D
:100CF700500010000000000000000000000000008D
:100D07000000005000243F800000000000000000A9
:060D170000003F80000017
:100E33007D1EAC051DEC60107E1C7F65EF1FAA06AE
:080E430070011E4A60EC80F40E
:010E4B002284
:0C000600E4FFE4FE0EBE21FC0FBF0AF672
:0100120022CB
:020E8C00AD07B0
:0D0E8E00E4FCECC39D50061200060C80F53C
:010E9B002234
:090F1000D2B020B00375C76022C5
:100E790053877F759850438E04759CBF438E0143F9
:030E89008E1022A6
:090F0600309806C298AF997E00F4
:010F0F0022BF
:080F19008F993099FDC2992265
:100DA600E4F5D8F5E9F5F975D90475EAFF75FAFFA2
:0F0DB60075DA4275EBFF75FBFF75DB42D2DE226B
:0F0E9C00E4F58E438902758A82758C82D28C228E
:0B0EFB0075FAFF75FBFFC293C2942242
:100C4D00C3EE64809480500DD291C292C3E49FFF95
:100C5D00E49EFE8004C291D292C3EC6480948050D5
:100C6D000DC295D290C3E49DFDE49CFC8004D29509
:100C7D00C290D3EF94FFEE6480948040027FFFD347
:100C8D00ED94FFEC6480948040027DFF8FFA8DFB24
:010C9D002234
:0C0EC8007F04AE071FEE6004000080F6FF
:010ED40022FB
:0F0EAB00D2A0D2A1120EC8C2A0120EC8C2A1229C
:0C0EEF00C2A0D2A1120EC8D2A0020EC8F0
:0E0EBA00A20192A0D2A1120EC8C2A1020EC8BF
:0D0ED500D2A1120EC8A2A0C2A1120EC82206
:020DFD00AD0740
:100DFF00E4FCED25E0FD92A0D2A1120EC8C2A11213
:090E0F000EC80CBC08EC020ED563
:100D8600E4FDD2A0FCED25E0FDD2A1120EC8A2A082
:0F0D9600E4334205C2A1120EC80CBC08E8AF0539
:010DA500222B
:100E4C00AB05AA07120EAB7FD0120DFDAF02120D2F
:090E5C00FDAF03120DFD020EEFC3
:020CD000AB0770
:100CD200120EAB7FD0120DFDAF03120DFD120EAB43
:100CE2007FD1120DFD120D86AD07D201120EBA127E
:040CF2000EEFAF054D
:010CF60022DB
:100D4200E4FD7F6B120E4C7D077F19120E4C7D065F
:100D52007F1A120E4C7D187F1B120E4C7D017F1CD8
:030D6200020E4C32
:020E1800AA0727
:100E1A00120CD08F82EA04FF120CD0AD07E582FED5
:080E2A007C00E42DFFEC3EFE0C
:010E3200229D
:100E6500538EBF53890F438910758BE5758DBEC2AF
:040E75008FD28E2268
:0D0EE200D2AFD2A8D2AAD288D28AD2AB2237
:10001E008F0B8E0A8D098C08AB48AA47A946A845B6
:10002E00C000C001C002C003900038E0F8A3E0F9A0
:10003E00A3E0FAA3E0FBAF0FAE0EAD0DAC0C1204B5
:10004E00B0900D711208A61205A5D003D002D001F2
:10005E00D0001204B48F488E478D468C45900028F0
:10006E00E0F8A3E0F9A3E0FAA3E0FB900D65120817
:10007E00961204B090002CE0F8A3E0F9A3E0FAA3E6
:10008E00E0FB1204B09000101208B6900030E0FCB5
:10009E00A3E0FDA3E0FEA3E0FF1207B89000141248
:1000AE0008B6900030E0FCA3E0FDA3E0FEA3E0FF65
:1000BE001207B89000181208B6900D6912089690A3
:1000CE00001C1208B6900024E0F8A3E0F9A3E0FAB1
:1000DE00A3E0FBC000C001C002C003900D71120866
:1000EE0096900010E0F8A3E0F9A3E0FAA3E0FB126B
:1000FE0005A5D003D002D001D0001204B490002484
:10010E001208B6900028E0F8A3E0F9A3E0FAA3E005
:10011E00FBC000C001C002C003900D711208969082
:10012E000014E0F8A3E0F9A3E0FAA3E0FB1205A5A2
:10013E00D003D002D001D0001204B49000281208CF
:10014E00B690002CE0F8A3E0F9A3E0FAA3E0FBC020
:10015E0000C001C002C003900D71120896900018E5
:10016E00E0F8A3E0F9A3E0FAA3E0FB1205A5D003A3
:10017E00D002D001D0001204B490002C1208B69018
:10018E000030E0F8A3E0F9A3E0FAA3E0FBC000C062
:10019E0001C002C003900D7112089690001CE0F889
:1001AE00A3E0F9A3E0FAA3E0FB1205A5D003D00269
:1001BE00D001D0001204B49000301208B6AB48AA99
:1001CE0047A946A845AF0BAE0AAD09AC081204B05C
:1001DE009000081208B6900D75E493FC1207D390A8
:1001EE000024E0F8A3E0F9A3E0FAA3E0FB1205A5D2
:1001FE0090000C1208B6900D75E493FC1207D39084
:10020E00002CE0F8A3E0F9A3E0FAA3E0FB1205A5A9
:10021E009000201208B6900D75E493FC1207D3904F
:10022E00000CE0F8A3E0F9A3E0FAA3E0FB1205A5A9
:10023E00900D6D1208A61204B49000341208B690F8
:10024E000034E0F8A3E0F9A3E0FAA3E0FB90000C81
:10025E00E0FCA3E0FDA3E0FEA3E0FF1206AE9000DB
:10026E003C1208B6900034E0F8A3E0F9A3E0FAA33C
:10027E00E0FB900020E0FCA3E0FDA3E0FEA3E0FF86
:10028E001206AE9000401208B690000CE0FCA3E0FF
:10029E00FDA3E0FEA3E0FF9000001208B6900D75DE
:1002AE00E493FC1207D3900028E0F8A3E0F9A3E052
:1002BE00FAA3E0FB1205A59000041208B6900024E4
:1002CE00E0FCA3E0FDA3E0FEA3E0FFC004C005C078
:1002DE0006C007900000E0FCA3E0FDA3E0FEA3E053
:1002EE00FF90003CE0F8A3E0F9A3E0FAA3E0FB12D4
:1002FE0005A5A804A905AA06AB07D007D006D00508
:10030E00D0041204B09000241208B6900028E0FC2D
:10031E00A3E0FDA3E0FEA3E0FFC004C005C006C03D
:10032E0007900004E0FCA3E0FDA3E0FEA3E0FF9035
:10033E00003CE0F8A3E0F9A3E0FAA3E0FB1205A568
:10034E00A804A905AA06AB07D007D006D005D0048D
:10035E001204B09000281208B690002CE0FCA3E026
:10036E00FDA3E0FEA3E0FFC004C005C006C00790D9
:10037E000000E0FCA3E0FDA3E0FEA3E0FF90004040
:10038E00E0F8A3E0F9A3E0FAA3E0FB1205A5A804A8
:10039E00A905AA06AB07D007D006D005D0041204D3
:1003AE00B090002C1208B6900030E0FCA3E0FDA344
:1003BE00E0FEA3E0FFC004C005C006C00790000425
:1003CE00E0FCA3E0FDA3E0FEA3E0FF900040E0F818
:1003DE00A3E0F9A3E0FAA3E0FB1205A5A804A90582
:1003EE00AA06AB07D007D006D005D0041204B090F1
:1003FE0000301208B6AB48AA47A946A845C000C0AF
:10040E0001C002C003900008E0FCA3E0FDA3E0FEE3
:10041E00A3E0FF90003CE0F8A3E0F9A3E0FAA3E02C
:10042E00FB1205A5D003D002D001D0001204B48F68
:10043E00488E478D468C45900038E0F8A3E0F9A32E
:10044E00E0FAA3E0FBC000C001C002C003900008A8
:10045E00E0FCA3E0FDA3E0FEA3E0FF900040E0F887
:10046E00A3E0F9A3E0FAA3E0FB1205A5D003D002A6
:10047E00D001D0001204B49000381208B6900038A3
:10048E00E0F8A3E0F9A3E0FAA3E0FBAF0FAE0EADE8
:0F049E000DAC0C1204B08F548E538D528C512222
:100ABE007F3B120E18AC06AD07EC1207CE8F3B8EA5
:100ACE003A8D398C387F007E807D897CC4AB3BAA01
:100ADE003AA939A8381204B4E4FBFA7980784612A0
:100AEE0006AE8F2D8E2C8D2B8C2A7F017E007D588D
:100AFE007C43AB2DAA2CA92BA82A1205A57BC37A61
:100B0E00F5794878401206AE8F2D8E2C8D2B8C2ABF
:100B1E007F45120E18AC06AD07EC1207CE8F548E21
:100B2E00538D528C51E4FFFE7DF07C41AB54AA53A1
:100B3E00A952A8511204B41207B87B337A337983C1
:100B4E0078411206AE8F548E538D528C518F0F8E6C
:100B5E000E8D0D8C0CAF2DAE2CAD2BAC2A02001EC3
:1009C700E5442542FDE5433541FC1207CEE4FBFA39
:1009D700F9783F1205A58F378E368D358C34AF26C3
:1009E700AE25AD24AC237433FBFAF9783F1205A585
:1009F7008F268E258D248C23AB26AA25A924A823F0
:100A0700C000C001C002C0037F9A7E997D997C3ED9
:100A1700AB37AA36A935A8341205A5D003D002D022
:100A270001D0001204B48F268E258D248C23AF505D
:100A3700AE4FAD4EAC4DAB26AA25A924A823120470
:100A4700B48F508E4F8D4E8C4DAB50AA4FA94EA8E8
:100A57004DC000C001C002C003AC22EC1207D3D0C6
:100A670003D002D001D0001204B48F508E4F8D4EA8
:100A77008C4D7F007E807DBB7CC5AB50AA4FA94EB5
:100A8700A84D12074B500C755000754F80754EBB23
:100A9700754DC57F007E807DBB7C45AB50AA4FA9B5
:100AA7004EA84D12074B600E400C755000754F80D5
:070AB700754EBB754D452291
:1008C200E4FFFE7D207CC2AB48AA47A946A8451298
:1008D200074B4016E4FFFE7D207C42AB48AA47A9A5
:1008E20046A84512074B60084006E4F5FAF5FB22DC
:1008F200AF54AE53AD52AC51900D7A1208A6120508
:10090200A5C004C005C006C007AF48AE47AD46AC9F
:1009120045900D761208A61205A5D003D002D0018B
:10092200D0001204B48F4C8E4B8D4A8C49AB4CAA2A
:100932004BA94AA849C000C001C002C003AF26AEFD
:1009420025AD24AC23900D821208A61205A5C00481
:10095200C005C006C007AF50AE4FAD4EAC4D900DB6
:100962007E1208A61205A5D003D002D001D0001233
:1009720004B4D003D002D001D0001204B48F4C8E44
:100982004B8D4A8C49AC40EC1207D3AB4CAA4BA915
:100992004AA8491204B41208078E2E8F2FAC40ECDD
:1009A2001207D3A804A905AA06AB07AF4CAE4BADFC
:1009B2004AAC491204B01208078E288F29AD2FAC19
:0509C2002E120C4D2275
:100C9E00120F068F21E521B402057522B0800DE5F5
:100CAE0021B401057522508003E4F522E521B40339
:100CBE000475400F22E521B404047540F122E4F5D9
:020CCE004022C2
:100D1E007FF4120E8C120DA6120E9C120E65120E80
:100D2E00E2120EFB120E79120D427FF4120E8C128D
:040D3E000C9E80FB8C
:03001B00020BFADB
:100BFA00C0E0C0F0C083C082C0D075D000C000C0C1
:100C0A0001C002C003C004C005C006C007758BE559
:100C1A00758DBE120ABE1209C71208C27541007547
:100C2A004200754300754400D007D006D005D004B1
:100C3A00D003D002D001D000D0D0D082D083D0F05F
:030C4A00D0E032C5
:03000300020DC526
:100DC500C0E030B50A0542E542700C05418008E5F2
:0C0DD50042154270021541B280D0E0329D
:03001300020DE1FA
:100DE100C0E030B40A0544E544700C05438008E5D1
:0C0DF10044154470021543B280D0E0327B
:1004AD00020873E86480F8E933E83360110460F002
:1004BD00ED33EC337009E8FCE9FDEAFEEBFF2204B5
:1004CD0060DED3EB9FEA9EE99DE8C2E78CF0C2F7B0
:1004DD0095F0400CE8CCF8E9CDF9EACEFAEBCFFB7C
:1004ED0012083E85D0F05804700320D5B3E804708F
:1004FD00075002B2D502087D92D5EC0460F7E4CC2A
:10050D00C0E0C398F8603B94186008400DD0E0FB44
:10051D00020855E4FBFAC9FC8028E830E406E4C97A
:10052D00FBE4CAFCE830E305E4C9CACBFCE8540798
:10053D006010F8C3E913F9EA13FAEB13FBEC13FCA3
:10054D00D8F130F52FC3E49CFCEF9BFFEE9AFEED46
:10055D0099FDD0E0FBEF4E4D4C701222DB030208EB
:10056D007AEC2CFCEF33FFEE33FEED33FDED30E78F
:10057D00EB020855EF2BFFEE3AFEED39FDD0E0FB17
:10058D0050130BBB000302087DED13FDEE13FEEFC0
:08059D0013FFEC13FC020855EA
:1005A500EC4D6011E8497017ED33EC3304600DE450
:1005B500FCFFFEFD22E933E8330470F802087312EC
:1005C500083E58046009E4CC2481500628500902ED
:1005D500087D28400302087AC0E0EB4A7044B980E0
:1005E50006D0E0FB020869EF4E701CBD8008EBFFEA
:1005F500EAFEE9FD80EBE98DF0A4FEE5F002068E4A
:10060500E9CDF9EAFEEBFFEF89F0A4FCE5F0CE8930
:10061500F0A42EFFE435F0CD89F0A42DFEE435F0ED
:100625008067EF4E7005BD80D780C3EF8BF0A4AC1B
:10063500F0EE8BF0A42CFCE435F0F8EF8AF0A42C56
:10064500E5F038FCE433CB8DF0A42CFCE5F03BF869
:10065500EE8AF0A42CFCE5F038F8E433CF89F0A459
:100665002CFCE5F038CF3400CE89F0A42FFFE5F05F
:100675003EFEE433C98DF0A42EFEE5F039CD8AF0B7
:10068500A42FFFE5F03EFEE43DFD33D0E0FB50072F
:100695000BBB000F02087DEC2CFCEF33FFEE33FEA5
:0606A500ED33FD020855D3
:1006AB0002087DEC5D046005E859047003020873D1
:1006BB0012083E580460F6EC4860F2EC7004FDFE44
:1006CB00FF22C860DB2481C85009C3986002500622
:1006DB0002087A9850CAF582E9294B4A7005AB8219
:1006EB0002086975F0007C1A7880C3EF9BEE9AEDD7
:1006FB0099400DC3EF9BFFEE9AFEED99FDE842F09A
:10070B00DC23ACF0D0E0FFD0E0FED0E0FDAB8220EC
:10071B00E7101BEB60BAEC2CFCEF33FFEE33FEED76
:10072B0033FD020855E803F830E705C0F075F0001B
:10073B00EF2FFFEE33FEED33FD40B830E7C280AA5A
:10074B0074F8CC6480CCC86480C8F582046043C361
:10075B00EB9FF5F0EA9E42F0E99D42F0E89C45F0F4
:10076B0060305018E5825FFFE582F42B5582FB5019
:10077B00210ABA001D09B90019088016E5825BFB36
:10078B00E582F42F5582FF50090EBE00050DBD000A
:10079B00010CC3EB9FF5F0EA9E42F0E99D42F0E8B5
:0D07AB009C45F06007CC4820E701B3EC222C
:1007B800ED33EC33600A047003BD8004ECB2E7FC4F
:0107C800220E
:1007C90075F020800E75F010800575F0087D007EAB
:1007D900007F003392D530D503120888EC334010DE
:1007E900EF33FFEE33FEED33FDEC33FCD5F0ED22B4
:0E07F900E5F0247EA2D513CC92E7CDCEFF22F0
:10080700EDD2E7CD33EC3392D524814006E4FFFEE9
:10081700FDFC22FCE4CFCECDCC24E0501174FF8048
:10082700EDC3CC13CCCD13CDCE13CECF13CF0470E5
:07083700F030D5DE02088855
:10083E00E9D2E7C933E833F892D5EDD2E7CD33EC00
:07084E0033FC5002B2D52279
:10085500EC30E7100FBF000C0EBE00080DBD000404
:100865000BEB6014A2D5EB13FCED92E7FD2274FFB0
:10087500FCFDFEFF22E480F8A2D574FF13FC7D8009
:03088500E480EF1D
:03000000020B6E82
:0C0B6E00787FE4F6D8FD758154020BB5C9
:0E088800C3E49FFFE49EFEE49DFDE49CFC2281
:10089600E493FC740193FD740293FE740393FF22A8
:1008A600E493F8740193F9740293FA740393FB22A8
:0C08B600ECF0A3EDF0A3EEF0A3EFF022B5
:100B7A00020D1EE493A3F8E493A34003F68001F266
:100B8A0008DFF48029E493A3F85407240CC8C3337C
:100B9A00C4540F4420C8834004F456800146F6DF4B
:100BAA00E4800B0102040810204080900CF7E47ED8
:100BBA00019360BCA3FF543F30E509541FFEE49340
:100BCA00A360010ECF54C025E060A840B8E493A307
:100BDA00FAE493A3F8E493A3C8C582C8CAC583CA32
:100BEA00F0A3C8C582C8CAC583CADFE9DEE780BEEA
:010D1D0000D5
:00000001FF
